{
  "_format": "hh-sol-artifact-1",
  "contractName": "Transactions",
  "sourceName": "contracts/Transactions.sol",
  "abi": [
    {
      "anonymous": false,
      "inputs": [
        {
          "indexed": false,
          "internalType": "address",
          "name": "from",
          "type": "address"
        },
        {
          "indexed": false,
          "internalType": "address",
          "name": "to",
          "type": "address"
        },
        {
          "indexed": false,
          "internalType": "uint256",
          "name": "amount",
          "type": "uint256"
        },
        {
          "indexed": false,
          "internalType": "string",
          "name": "message",
          "type": "string"
        },
        {
          "indexed": false,
          "internalType": "uint256",
          "name": "timestamp",
          "type": "uint256"
        },
        {
          "indexed": false,
          "internalType": "string",
          "name": "keyword",
          "type": "string"
        }
      ],
      "name": "Transfer",
      "type": "event"
    },
    {
      "inputs": [
        {
          "internalType": "address payable",
          "name": "receiver",
          "type": "address"
        },
        {
          "internalType": "uint256",
          "name": "amount",
          "type": "uint256"
        },
        {
          "internalType": "string",
          "name": "message",
          "type": "string"
        },
        {
          "internalType": "string",
          "name": "keyword",
          "type": "string"
        }
      ],
      "name": "addToBlockchain",
      "outputs": [],
      "stateMutability": "nonpayable",
      "type": "function"
    },
    {
      "inputs": [],
      "name": "getAllTransactions",
      "outputs": [
        {
          "components": [
            {
              "internalType": "address",
              "name": "sender",
              "type": "address"
            },
            {
              "internalType": "address",
              "name": "receiver",
              "type": "address"
            },
            {
              "internalType": "uint256",
              "name": "amount",
              "type": "uint256"
            },
            {
              "internalType": "string",
              "name": "message",
              "type": "string"
            },
            {
              "internalType": "uint256",
              "name": "timestamp",
              "type": "uint256"
            },
            {
              "internalType": "string",
              "name": "keyword",
              "type": "string"
            }
          ],
          "internalType": "struct Transactions.TransferStruct[]",
          "name": "",
          "type": "tuple[]"
        }
      ],
      "stateMutability": "view",
      "type": "function"
    },
    {
      "inputs": [],
      "name": "getTransactionCount",
      "outputs": [
        {
          "internalType": "uint256",
          "name": "",
          "type": "uint256"
        }
      ],
      "stateMutability": "view",
      "type": "function"
    },
    {
      "inputs": [
        {
          "internalType": "uint256",
          "name": "",
          "type": "uint256"
        }
      ],
      "name": "transactions",
      "outputs": [
        {
          "internalType": "address",
          "name": "sender",
          "type": "address"
        },
        {
          "internalType": "address",
          "name": "receiver",
          "type": "address"
        },
        {
          "internalType": "uint256",
          "name": "amount",
          "type": "uint256"
        },
        {
          "internalType": "string",
          "name": "message",
          "type": "string"
        },
        {
          "internalType": "uint256",
          "name": "timestamp",
          "type": "uint256"
        },
        {
          "internalType": "string",
          "name": "keyword",
          "type": "string"
        }
      ],
      "stateMutability": "view",
      "type": "function"
    }
  ],
  "bytecode": "0x608060405234801561001057600080fd5b50610e87806100206000396000f3fe608060405234801561001057600080fd5b506004361061004c5760003560e01c806327506f53146100515780632e7700f01461006f5780639ace38c21461008d578063cc2d7ead146100c2575b600080fd5b6100596100de565b6040516100669190610b33565b60405180910390f35b610077610321565b6040516100849190610b55565b60405180910390f35b6100a760048036038101906100a29190610856565b61032a565b6040516100b996959493929190610ac4565b60405180910390f35b6100dc60048036038101906100d791906107c3565b6104c6565b005b60606001805480602002602001604051908101604052809291908181526020016000905b8282101561031857838290600052602060002090600602016040518060c00160405290816000820160009054906101000a900473ffffffffffffffffffffffffffffffffffffffff1673ffffffffffffffffffffffffffffffffffffffff1673ffffffffffffffffffffffffffffffffffffffff1681526020016001820160009054906101000a900473ffffffffffffffffffffffffffffffffffffffff1673ffffffffffffffffffffffffffffffffffffffff1673ffffffffffffffffffffffffffffffffffffffff168152602001600282015481526020016003820180546101eb90610d53565b80601f016020809104026020016040519081016040528092919081815260200182805461021790610d53565b80156102645780601f1061023957610100808354040283529160200191610264565b820191906000526020600020905b81548152906001019060200180831161024757829003601f168201915b505050505081526020016004820154815260200160058201805461028790610d53565b80601f01602080910402602001604051908101604052809291908181526020018280546102b390610d53565b80156103005780601f106102d557610100808354040283529160200191610300565b820191906000526020600020905b8154815290600101906020018083116102e357829003601f168201915b50505050508152505081526020019060010190610102565b50505050905090565b60008054905090565b6001818154811061033a57600080fd5b90600052602060002090600602016000915090508060000160009054906101000a900473ffffffffffffffffffffffffffffffffffffffff16908060010160009054906101000a900473ffffffffffffffffffffffffffffffffffffffff16908060020154908060030180546103af90610d53565b80601f01602080910402602001604051908101604052809291908181526020018280546103db90610d53565b80156104285780601f106103fd57610100808354040283529160200191610428565b820191906000526020600020905b81548152906001019060200180831161040b57829003601f168201915b50505050509080600401549080600501805461044390610d53565b80601f016020809104026020016040519081016040528092919081815260200182805461046f90610d53565b80156104bc5780601f10610491576101008083540402835291602001916104bc565b820191906000526020600020905b81548152906001019060200180831161049f57829003601f168201915b5050505050905086565b60016000808282546104d89190610c37565b9250508190555060006040518060c001604052803373ffffffffffffffffffffffffffffffffffffffff1681526020018673ffffffffffffffffffffffffffffffffffffffff168152602001858152602001848152602001428152602001838152509050600181908060018154018082558091505060019003906000526020600020906006020160009091909190915060008201518160000160006101000a81548173ffffffffffffffffffffffffffffffffffffffff021916908373ffffffffffffffffffffffffffffffffffffffff16021790555060208201518160010160006101000a81548173ffffffffffffffffffffffffffffffffffffffff021916908373ffffffffffffffffffffffffffffffffffffffff16021790555060408201518160020155606082015181600301908051906020019061061c92919061068e565b506080820151816004015560a082015181600501908051906020019061064392919061068e565b5050507f416cfa4330a4565f45c2fd2dd4826a83a37443aba2ce6f79477c7355afac35fa33868686428760405161067f96959493929190610a55565b60405180910390a15050505050565b82805461069a90610d53565b90600052602060002090601f0160209004810192826106bc5760008555610703565b82601f106106d557805160ff1916838001178555610703565b82800160010185558215610703579182015b828111156107025782518255916020019190600101906106e7565b5b5090506107109190610714565b5090565b5b8082111561072d576000816000905550600101610715565b5090565b600061074461073f84610ba1565b610b70565b90508281526020810184848401111561075c57600080fd5b610767848285610d11565b509392505050565b60008135905061077e81610e23565b92915050565b600082601f83011261079557600080fd5b81356107a5848260208601610731565b91505092915050565b6000813590506107bd81610e3a565b92915050565b600080600080608085870312156107d957600080fd5b60006107e78782880161076f565b94505060206107f8878288016107ae565b935050604085013567ffffffffffffffff81111561081557600080fd5b61082187828801610784565b925050606085013567ffffffffffffffff81111561083e57600080fd5b61084a87828801610784565b91505092959194509250565b60006020828403121561086857600080fd5b6000610876848285016107ae565b91505092915050565b600061088b83836109a7565b905092915050565b61089c81610cdb565b82525050565b6108ab81610c8d565b82525050565b6108ba81610c8d565b82525050565b60006108cb82610be1565b6108d58185610c04565b9350836020820285016108e785610bd1565b8060005b858110156109235784840389528151610904858261087f565b945061090f83610bf7565b925060208a019950506001810190506108eb565b50829750879550505050505092915050565b600061094082610bec565b61094a8185610c15565b935061095a818560208601610d20565b61096381610e12565b840191505092915050565b600061097982610bec565b6109838185610c26565b9350610993818560208601610d20565b61099c81610e12565b840191505092915050565b600060c0830160008301516109bf60008601826108a2565b5060208301516109d260208601826108a2565b5060408301516109e56040860182610a37565b50606083015184820360608601526109fd8282610935565b9150506080830151610a126080860182610a37565b5060a083015184820360a0860152610a2a8282610935565b9150508091505092915050565b610a4081610cd1565b82525050565b610a4f81610cd1565b82525050565b600060c082019050610a6a60008301896108b1565b610a776020830188610893565b610a846040830187610a46565b8181036060830152610a96818661096e565b9050610aa56080830185610a46565b81810360a0830152610ab7818461096e565b9050979650505050505050565b600060c082019050610ad960008301896108b1565b610ae660208301886108b1565b610af36040830187610a46565b8181036060830152610b05818661096e565b9050610b146080830185610a46565b81810360a0830152610b26818461096e565b9050979650505050505050565b60006020820190508181036000830152610b4d81846108c0565b905092915050565b6000602082019050610b6a6000830184610a46565b92915050565b6000604051905081810181811067ffffffffffffffff82111715610b9757610b96610de3565b5b8060405250919050565b600067ffffffffffffffff821115610bbc57610bbb610de3565b5b601f19601f8301169050602081019050919050565b6000819050602082019050919050565b600081519050919050565b600081519050919050565b6000602082019050919050565b600082825260208201905092915050565b600082825260208201905092915050565b600082825260208201905092915050565b6000610c4282610cd1565b9150610c4d83610cd1565b9250827fffffffffffffffffffffffffffffffffffffffffffffffffffffffffffffffff03821115610c8257610c81610d85565b5b828201905092915050565b6000610c9882610cb1565b9050919050565b6000610caa82610cb1565b9050919050565b600073ffffffffffffffffffffffffffffffffffffffff82169050919050565b6000819050919050565b6000610ce682610ced565b9050919050565b6000610cf882610cff565b9050919050565b6000610d0a82610cb1565b9050919050565b82818337600083830152505050565b60005b83811015610d3e578082015181840152602081019050610d23565b83811115610d4d576000848401525b50505050565b60006002820490506001821680610d6b57607f821691505b60208210811415610d7f57610d7e610db4565b5b50919050565b7f4e487b7100000000000000000000000000000000000000000000000000000000600052601160045260246000fd5b7f4e487b7100000000000000000000000000000000000000000000000000000000600052602260045260246000fd5b7f4e487b7100000000000000000000000000000000000000000000000000000000600052604160045260246000fd5b6000601f19601f8301169050919050565b610e2c81610c9f565b8114610e3757600080fd5b50565b610e4381610cd1565b8114610e4e57600080fd5b5056fea2646970667358221220b20534c94fefd2c6f3bb6bc13ca3ed1c4a63fdb64a5968d1cfb3d6e35d8d04dc64736f6c63430008000033",
  "linkReferences": {},
  "deployedLinkReferences": {}
}